:080000000C9430000C94000088
:100008000C9400000C9400000C9400000C94000068
:100018000C9400000C9400000C9400000C94000058
:100028000C9400000C945D000C9400000C940000EB
:100038000C9400000C9400000C9400000C94000038
:100048000C9400000C9400000C94000000000000C8
:100058000400040054000000F894EE27ECBBF1E023
:10006800FBBFEBBFE5BF8DE0A2E0BB27ED938A9510
:10007800E9F780E098E0A0E6ED930197E9F7E8E575
:10008800F0E085919591009761F0A591B591059063
:100098001590BF01F00105900D920197E1F7FB0162
:1000A800F0CFEFE5EDBFE8E0EEBFC0E6D2E00C949C
:1000B8007B000A92EA93FA93EFB7EA93F2010E945F
:1000C800A7004E2E5524042C052811F46624772405
:1000D800E1E0F0E0E415F50519F4EFEFF0E03F0199
:1000E80068BAE991EFBFF991E99109901895E0E0B4
:1000F800EABBEBBBE7BBE8BBE4BBE5BBE1BBE2BBF0
:10010800E5E0E3BFE0E0E2BFECBFEFBDEEBDEDBD73
:10011800ECBDE7BDE6BDEBBDEABDE9BDE8BDE2BDAE
:10012800E5BDE4BDE3BDE1E0E9BFE0E0E5BFE4BF74
:10013800EAB9E0E8E8B9E0E0E0BFE6B9EDB9E6BF62
:100148007894FFCFFFCFEF2BE1E009F0E0E00895CE
:00000001FF
