:100000000C9431000C9400000C9400000C9400003F
:100010000C9400000C9400000C9400000C94000060
:100020000C9400000C9400000C9400000C945E00F2
:100030000C9400000C9400000C9400000C94000040
:100040000C9400000C9400000C9400000C94000030
:100050000C940000000000000000060004005400A2
:100060000000F894EE27ECBBF1E0FBBFEBBFE5BF6F
:100070008DE0A2E0BB27ED938A95E9F780E098E058
:10008000A0E6ED930197E9F7EAE5F0E08591959117
:10009000009761F0A591B59105901590BF01F00111
:1000A00005900D920197E1F7FB01F0CFEFE5EDBF71
:1000B000E8E0EEBFC0E6D2E00C94E5000A92AA9315
:1000C000BA93EA93FA93EFB7EA93E9B3F0E0E093D7
:1000D0006002F0936102A0916002B09161021197F9
:1000E00099F4F2010E9413014E2E5524042C052888
:1000F00011F466247724E1E0F0E0E415F50519F445
:10010000EFEFF0E03F0168BAE0916002F091610228
:10011000309709F052C00A2C0B2829F4F4013196CB
:100120004F01319708C0E1E0F0E0EA15FB0519F452
:10013000F40131974F01E1E0F0E0E815F90519F419
:100140006F01AA24BB24E2E0F0E0E815F90509F408
:100150006F01E3E0F0E0E815F90519F4E4E0F0E000
:100160006F01E4E0F0E0E815F90519F4E8E0F0E0EB
:100170006F01E5E0F0E0E815F90519F4E0E1F0E0E1
:100180006F01E6E0F0E0E815F90519F4E0E2F0E0CF
:100190006F01E7E0F0E0E815F90519F4E0E4F0E0BC
:1001A0006F01E8E0F0E0E815F90531F4E0E8F0E08F
:1001B0006F01E1E0F0E05F01C8BAE991EFBFF991AA
:1001C000E991B991A99109901895E0E0EABBEBBBE0
:1001D000EFEFE7BBE0E0E8BBE4BBE5BBE1BBE2BBC4
:1001E000E5E0E3BFE0E0E2BFECBFEFBDEEBDEDBD9B
:1001F000ECBDE7BDE6BDEBBDEABDE9BDE8BDE2BDD6
:10020000E5BDE4BDE3BDE1E0E9BFE0E0E5BFE4BF9B
:10021000EAB9E0E8E8B9E0E0E0BFE6B9EDB9E6BF89
:100220007894FFCFFFCFEF2BE1E009F0E0E00895F5
:00000001FF
