:100000000C942F000C945C000C9400000C940000E5
:100010000C9400000C9400000C9400000C94000060
:100020000C9400000C9400000C9400000C94000050
:100030000C9400000C9400000C9400000C94000040
:100040000C9400000C9400000C9400000C94000030
:100050000C94000000000200040054000000F8941A
:10006000EE27ECBBF1E0FBBFEBBFE5BF8DE0A2E00C
:10007000BB27ED938A95E9F780E098E0A0E6ED9341
:100080000197E9F7E6E5F0E085919591009761F039
:10009000A591B59105901590BF01F00105900D92C5
:1000A0000197E1F7FB01F0CFEFE5EDBFE8E0EEBF30
:1000B000C0E6D2E00C946A00EA93FA93EFB7EA93B1
:1000C000F2010E94B3004E2E5524E991EFBFF99141
:1000D000E9911895E0E0EABBEBBBEFE0E7BBE0E0BD
:1000E000E8BBE4BBE5BBE1BBE2BBE3BFE2BFECBF07
:1000F000EFBDEEBDEDBDECBDE7BDE6BDEBBDEABDC0
:10010000E9BDE8BDE2BDE5BDE4BDE3BDE9BFEBB7D8
:10011000E064EBBFE0E0E5BFE4BFE0E4EABFE0E0BD
:10012000EAB9E0E8E8B9E0E0E0BFE6B9EDB9E6BF7A
:100130007894042C052841F4E9E0E8BBE5E0E8BB4D
:10014000E6E0E8BBEAE0E8BBE1E0F0E0E415F50555
:1001500041F4EAE0E8BBE6E0E8BBE5E0E8BBE9E063
:10016000E8BBE7CFFFCFEF2BE1E009F0E0E0089537
:00000001FF
