:0A0000000C9446000C9400000C94D0
:10000A0000000C9400000C9400000C9400000C9466
:10001A0000000C9400000C9400000C9400000C9456
:10002A0000000C9400000C9400000C9400000C9446
:10003A0000000C9400000C9400000C9400000C9436
:10004A0000000C9400000C9400001027E8036400E0
:10005A000A000100001000011000010054656D70D3
:10006A003D256420000001002D4E414E00494E46B8
:10007A00000080C001006F017000020073017C0063
:10008A000000F894EE27ECBBF1E0FBBFEBBFE5BF45
:10009A008DE0A2E0BB27ED938A95E9F780E094E032
:1000AA00A0E6ED930197E9F7EEE7F0E085919591E7
:1000BA00009761F0A591B59105901590BF01F001E7
:1000CA0005900D920197E1F7FB01F0CFEFE5EDBF47
:1000DA00E4E0EEBFC0E6D1E00C948200AA93E88186
:1000EA00E06CE7B982E08A95F1F7369A349BFECF45
:1000FA00349AE4B1F5B10C940003E0E0EABBEBBB3F
:10010A00E7BBE8BBE4BBE5BBE1BBE2BBE3BFE2BFE5
:10011A00ECBFEFBDEEBDEDBDECBDE7BDE6BDEBBD91
:10012A00EABDE9BDE8BDE2BDE5BDE4BDE3BDE9BFA9
:10013A00E5BFE4BFEAB9E0E8E8B9E0ECE7B9E2E82C
:10014A00E6B9E0E0E0BFEDB9E6BFA4E10E94D5025E
:10015A00A0E0C4DF2F01E0E6F1E0FA93EA93E6E6D5
:10016A00F0E0FA93EA93F2010E9465036627772783
:10017A000E94720384E00E9442022896E0E0EA9319
:10018A00A0E00E949602A0E6B1E00E94C402E0CF7D
:10019A00FFCFBA93AA931A930A93AA81BB811296A4
:1001AA000E946A03309759F1AA81BB8114960E9472
:1001BA006A038F01309761F00230E0E01E0798F081
:1001CA00F80131978F01AA81BB811496ED93FC93B4
:1001DA00AA81BB811296ED91FD913196FE93EE9321
:1001EA003197AC81A083AA81BB810E946A03FF2355
:1001FA002AF0ED91FD913196FE93EE9306C0AA8105
:10020A00BB81EFEFFFEFED93FC93198108812596EF
:10021A000895BA93AA9326970E94770310E0AC85B3
:10022A00BD85E0E0F0E0ED93FC93EA89FB89319625
:10023A00EA8BFB8B3197E4912E2FE03009F415C13C
:10024A00E12FE03039F4253211F411E002C00E94A6
:10025A001B030AC1E130A9F4253219F40E941B03D9
:10026A0002C112E040E000E02D3211F401E0FCC0CE
:10027A002B3211F44BE2F8C0203211F440E2F4C000
:10028A0002C0E23039F450E013E0203311F4006880
:10029A00EBC003C0E33009F0E7C0203310F02A3383
:1002AA0008F007C0AAE05A9F502DE22FE0535E0FD4
:1002BA00DBC0E22FE33649F40E942203E889F98978
:1002CA00A481AA930E942803CEC0E33741F40E9476
:1002DA0022030E942E030E9402031E2F0AC0E03747
:1002EA0061F40E9422030E942E030E940E031E2F15
:1002FA00086002600F7730E034C0E43611F0E93666
:10030A0011F4046002C0E53731F4E4E5F0E0EE836D
:10031A00FF8315E00CC0E83511F4086003C0E83724
:10032A0009F0A1C0EEE5F0E0EE83FF8314E002FFDE
:10033A0014C00E9422030E943803AB85AA233AF410
:10034A00EA85FB850E946103EA87FB874DE240301C
:10035A0011F01F5F01C00B7F04C00E9422030E949C
:10036A00380300FD11C0151778F407FF08C002FF13
:10037A0004C00B7F242F115001C020E301C020E2EA
:10038A000E941B035150EFCF312F01FF17C03030AD
:10039A00A1F003FF06C0EE81FF812591EE83FF8362
:1003AA0005C0AE81BF812D91AE83BF830E941B031E
:1003BA00503009F051503150EACF4BC020E3EE8162
:1003CA00FF810E946E03E887F987EE81FF813296EA
:1003DA00EE83FF83E885F985AA85BB85AE17BF073B
:1003EA0050F02F5FA885B985EA85FB85EA1BFB0BD0
:1003FA00EA87FB87EFCF2A3328F003FF02C0295F81
:10040A0001C0295D04FD1AC0213320F4A885B985ED
:10041A00119709F409C0531710F000FF01C013C067
:10042A0020E207FF0BC020E3006102FF07C00B7F39
:10043A004A930E942803503009F051500E941B032E
:10044A00503009F051503150A885B985129708F0FB
:10045A00B5CF00FF08C0503031F05150E0E2EA93C6
:10046A000E942803F8CF10E0E0CEAC85BD850E943B
:10047A006A030E947E0364960895FF92F82E2697D7
:10048A000E9479030E944003309719F4EFEFFFEFBF
:10049A0023C0DE0116960E945D038D010E9440036F
:1004AA00EE83FF83E0E0E887E987DE011A960E947F
:1004BA005D030E946A03FA93EA931A930A93EEEC95
:1004CA00F0E0FA93EA93DE011A96A3DE9F01AE8169
:1004DA00BF81E0E0EC93F9010E9480032A96FF9025
:1004EA000895AA93E8B3EF70AE2FE881E07FEA2B74
:1004FA00E8BB81E08A95F1F7C29A81E08A95F1F723
:10050A00C29881E08A95F1F776C0AA93A881E9DFBB
:10051A00E881E295E883A881E4DF88E08A95F1F72B
:10052A006AC0AA93E881F0E0ED58FE4FE081A98104
:10053A00AE0FEBDF7980688022960895A2E00E94D0
:10054A004703ACE0E2DFA1E00E944703E0E06E2E41
:10055A007E2E0895AA93A881AA3011F0791448F042
:10056A00E0E0EA936394A62DDCDFA881AA3009F4BF
:10057A0042C07394C09AA881C8DFC0983CC0BA939D
:10058A00AA931A93A981BA81ED91A983BA831E2FDE
:10059A00E03019F0A12FDEDFF5CF188123960895F8
:1005AA00AA93E7B3E06FE7BBBA9AB89AB99AC29826
:1005BA00C098C1989880E881E058E0937501E88175
:1005CA00E054E0937601A4E1B0E00E9454030E9453
:1005DA004D030E944D030E944D03A0E282DF81E198
:1005EA008A95F1F7A8E291DFA4E08FDFA5E88DDF15
:1005FA00A6E08BDFA3DF21960895BA93AA93A99167
:10060A00B991EE27FF276D91662311F03196FBCF42
:10061A000895BA93AA93AA27BB27E991F99105905D
:10062A00002011F01196FBCFFD0108952A93AD85A4
:10063A00BE85EF85F88909950895E889F98934977F
:10064A00E88BF98B0895AD85BE85EF85F889099504
:10065A000895A889B98914960E946A03EE83FF83D4
:10066A00AE81BF810895A889B98914960E946A0348
:10067A00EA87FB870895DE011C960E945D030E94AB
:10068A006A0308950E948A02A3E0B0E00C9454031E
:10069A00A0E30E94760281E18A95F1F70895109607
:1006AA0031F087EA8A95F1F7A8951197D1F708955D
:1006BA000024AF0DB01D0895F195E195F04008951D
:1006CA00F695E795F695E7950895ED91FC911197C2
:1006DA0008950590F491E02D08957A936A93FA9318
:1006EA00EA9308955A934A933A932A931A930A9348
:1006FA0008955D814C813B812A8119810881089581
:00000001FF
