:020000000C945E
:100002002F000C9400000C9400000C9400000C943F
:1000120000000C9400000C9400000C9400000C945E
:1000220000000C9400000C9400000C945C000C94F2
:1000320000000C9400000C9400000C9400000C943E
:1000420000000C9400000C9400000C9400000C942E
:10005200000000000200040054000000F894EE27A3
:10006200ECBBF1E0FBBFEBBFE5BF8DE0A2E0BB273D
:10007200ED938A95E9F780E098E0A0E6ED93019789
:10008200E9F7E6E5F0E085919591009761F0A59199
:10009200B59105901590BF01F00105900D92019761
:1000A200E1F7FB01F0CFEFE5EDBFE8E0EEBFC0E620
:1000B200D2E00C946F00EA93FA93EFB7EA93F2015D
:1000C2000E949C004E2E5524E03011F4D89801C0B5
:1000D200D89AE991EFBFF991E9911895E0ECEABB62
:1000E200E0E0EBBBE7BBE8BBE4BBE5BBE1BBE2BBEB
:1000F200E5E0E3BFE0E0E2BFECBFEFBDEEBDEDBD8A
:10010200ECBDE7BDE6BDEBBDEABDE9BDE8BDE2BDC4
:10011200E5BDE4BDE3BDE1E0E9BFE0E0E5BFE4BF8A
:10012200EAB9E0E8E8B9E0E0E0BFE6B9EDB9E6BF78
:100132007894FFCFFFCFEF2BE1E009F0E0E00895E4
:00000001FF
