:100000000C9435000C9400000C9400000C9400003B
:100010000C9400000C9400000C9400000C94000060
:100020000C9400000C9400000C9400000C94000050
:100030000C9400000C9400000C9400000C94000040
:100040000C9400000C9400000C9400000C94000030
:100050000C94000068656C6C6F20776F726C6400A4
:1000600080C00200600160000000F894EE27ECBB45
:10007000F1E0FBBFEBBFE5BF8DE0A2E0BB27ED9356
:100080008A95E9F780E094E0A0E6ED930197E9F71F
:10009000E2E6F0E085919591009761F0A591B59128
:1000A00005901590BF01F00105900D920197E1F7C1
:1000B000FB01F0CFEFE5EDBFE4E0EEBFC0E6D1E03D
:1000C0000C946200E0E0EABBEBBBE7BBE8BBE4BB3F
:1000D000E5BBE1BBE2BBE3BFE2BFECBFEFBDEEBD02
:1000E000EDBDECBDE7BDE6BDEBBDEABDE9BDE8BDDC
:1000F000E2BDE5BDE4BDE3BDE9BFE5BFE4BFEAB9EC
:10010000E0E8E8B9E0E0E0BFE6B9EDB9E6BFA4E1B8
:1001100069D036D0A4E5B0E052D0A8EEB3E00E949A
:100120002701F7CFFFCFAA93E8B3EF70AE2FE88196
:10013000E07FEA2BE8BB81E08A95F1F7C29A81E083
:100140008A95F1F7C29881E08A95F1F773C0AA9376
:10015000A881E9DFE881E295E883A881E4DF88E00F
:100160008A95F1F767C0AA93E881F0E0E05AFE4F64
:10017000E081A981AE0FEBDF598048802296089577
:10018000A2E05AD0ACE0E3DFA1E056D0E0E04E2E92
:100190005E2E0895AA93A881AA3011F0571448F052
:1001A000E0E0EA934394A42DDEDFA881AA3009F4AD
:1001B00041C05394C09AA881CADFC0983BC0BA938B
:1001C000AA931A93E981FA813196E983FA833197E8
:1001D000E4911E2FE03019F0A12FDCDFF3CF18815E
:1001E00023960895AA93E7B3E06FE7BBBA9AB89A4B
:1001F000B99AC298C098C1987880E881E058E09395
:100200006201E881E054E0936301A4E1B0E00E9460
:10021000270117D016D015D0A0E285DF81E18A959D
:10022000F1F7A8E294DFA4E092DFA5E890DFA6E072
:100230008EDFA6DF219608958ADFA3E0B0E00C945C
:100240002701A0E370DF81E18A95F1F70895109608
:1002500031F087EA8A95F1F7A8951197D1F70895BB
:00000001FF
