:0E0000000C942F000C9400000C9400000C9443
:10000E0000000C9400000C9400000C9400000C9462
:10001E0000000C9400000C9400000C9400000C9452
:10002E005C000C9400000C9400000C9400000C94E6
:10003E0000000C9400000C9400000C9400000C9432
:10004E0000000C94000000000200040054000000A8
:10005E00F894EE27ECBBF1E0FBBFEBBFE5BF8DE004
:10006E00A2E0BB27ED938A95E9F780E098E0A0E641
:10007E00ED930197E9F7E6E5F0E08591959100970C
:10008E0061F0A591B59105901590BF01F001059015
:10009E000D920197E1F7FB01F0CFEFE5EDBFE8E040
:1000AE00EEBFC0E6D2E00C9490000A92EA93FA9367
:1000BE00EFB7EA93E9EDE2BF9A9925C0042C052823
:1000CE0029F4F20131962F01E9E01CC0E1E0F0E0E5
:1000DE00E415F50529F4F20131962F01E5E012C081
:1000EE00E2E0F0E0E415F50529F4F20131962F0176
:1000FE00E6E008C0E3E0F0E0E415F50521F4442461
:10010E005524EAE0E8BBE991EFBFF991E991099036
:10011E001895E0E0EABBEBBBEFE0E7BBE0E0E8BB45
:10012E00E4BBE5BBE1BBE2BBE3E0E3BFE9EDE2BF6D
:10013E00E0E0ECBFEFBDEEBDEDBDECBDE7BDE6BD55
:10014E00EBBDEABDE9BDE8BDE2BDE5BDE4BDE3BD85
:10015E00E1E0E9BFE0E0E5BFE4BFEAB9E0E8E8B915
:10016E00E0E0E0BFE6B9EDB9E6BF7894FFCFFFCF90
:00000001FF
