:060000000C942F000C948B
:100006005C000C9400000C9400000C9400000C940E
:1000160000000C9400000C9400000C9400000C945A
:1000260000000C9400000C9400000C9400000C944A
:1000360000000C9400000C9400000C9400000C943A
:1000460000000C9400000C9400000C9400000000CA
:100056000200040054000000F894EE27ECBBF1E027
:10006600FBBFEBBFE5BF8DE0A2E0BB27ED938A9512
:10007600E9F780E098E0A0E6ED930197E9F7E6E579
:10008600F0E085919591009761F0A591B591059065
:100096001590BF01F00105900D920197E1F7FB0164
:1000A600F0CFEFE5EDBFE8E0EEBFC0E6D2E00C949E
:1000B6006A00EA93FA93EFB7EA93F2010E94F60018
:1000C6004E2E5524E991EFBFF991E9911895E0E09C
:1000D600EABBEBBBEFE0E7BBE0E0E8BBE4BBE5BBBC
:1000E600E1BBE2BBE3BFE2BFECBFEFBDEEBDEDBDE2
:1000F600ECBDE7BDE6BDEBBDEABDE9BDE8BDE2BDD1
:10010600E5BDE4BDE3BDE9BFEBB7E064EBBFE0E00E
:10011600E5BFE4BFE0E4EABFE0E0EAB9E0E8E8B959
:10012600E0E0E0BFE6B9EDB9E6BF7894042C052817
:1001360051F532D0E9E034D038D03FD0EAE0E8BB20
:10014600A4E6B0E00E94ED00E9E037D02ED028D03A
:10015600EAE0E8BB21D0E0E0E8BB1ED0EAE020D030
:1001660031D02BD0E9E0E8BBA4E6B0E00E94ED0078
:10017600EAE023D027D014D0E9E0E8BB0DD0E0E0D8
:10018600E8BB0AD0D3CFE1E0F0E0E415F50511F4C1
:10019600E0E0E8BBCBCFFFCFA8EEB3E00C94ED00D8
:1001A600E8BBA4EFB1E00C94ED00E5E0E8BBAAEFF4
:1001B600B0E00E94ED00E6E00895E8BBADE7B0E0F0
:1001C6000C94ED00E6E0E8BBAAEFB0E00E94ED007B
:1001D600E5E00895109631F087EA8A95F1F7A8953B
:1001E6001197D1F70895EF2BE1E009F0E0E00895CB
:00000001FF
